:100000000C942A000C9447000C9447000C94470071
:100010000C9447000C9447000C9447000C94C90FB3
:100020000C9447000C9447000C9447000C94470034
:100030000C9447000C9447000C9447000C94470024
:100040000C9447000C9447000C9447000C94470014
:100050000C94470011241FBECFE5D8E0DEBFCDBF12
:1000600010E0A0E6B0E0EEE4FCE502C005900D92E1
:10007000A63EB107D9F717E0A6EEB0E001C01D9289
:10008000A135B107E1F70E94DB0C0C94252E0C94EE
:100090000000DF93CF9300D0CDB7DEB789836A83AA
:1000A0008A81813009F06DC089818830A0F4ABE38A
:1000B000B0E0EBE3F0E08081482F8981282F30E029
:1000C00081E090E0022E02C0880F991F0A94E2F7A7
:1000D000842B8C93C8C089818830C8F08981803195
:1000E000B0F4A8E3B0E0E8E3F0E08081482F898134
:1000F000882F90E008979C0181E090E0022E02C0DA
:10010000880F991F0A94E2F7842B8C93ACC08981E5
:100110008031C8F089818831B0F4A5E3B0E0E5E32F
:10012000F0E08081482F8981882F90E040979C01E2
:1001300081E090E0022E02C0880F991F0A94E2F736
:10014000842B8C9390C08981883108F48CC089817C
:10015000803208F088C0A2E3B0E0E2E3F0E0808102
:10016000482F8981882F90E048979C0181E090E09A
:10017000022E02C0880F991F0A94E2F7842B8C93F9
:1001800072C08A81882309F06EC089818830A8F402
:10019000ABE3B0E0EBE3F0E08081482F8981282FCA
:1001A00030E081E090E0022E02C0880F991F0A948F
:1001B000E2F7809584238C9356C089818830D0F0F3
:1001C00089818031B8F4A8E3B0E0E8E3F0E0808111
:1001D000482F8981882F90E008979C0181E090E06A
:1001E000022E02C0880F991F0A94E2F7809584239B
:1001F0008C9339C089818031D0F089818831B8F4FD
:10020000A5E3B0E0E5E3F0E08081482F8981882F05
:1002100090E040979C0181E090E0022E02C0880FA0
:10022000991F0A94E2F7809584238C931CC08981DE
:100230008831C8F089818032B0F4A2E3B0E0E2E313
:10024000F0E08081482F8981882F90E048979C01B9
:1002500081E090E0022E02C0880F991F0A94E2F715
:10026000809584238C930F900F90CF91DF91089508
:10027000DF93CF9300D0CDB7DEB7898389818830F3
:1002800098F4E9E3F0E08081282F30E08981882F1D
:1002900090E0A90102C0559547958A95E2F7CA01F9
:1002A000582F51705A8350C089818830B8F08981A5
:1002B0008031A0F4E6E3F0E08081282F30E08981EE
:1002C000882F90E00897A90102C0559547958A9517
:1002D000E2F7CA01582F51705A8336C089818031A4
:1002E000B8F089818831A0F4E3E3F0E08081282F21
:1002F00030E08981882F90E04097A90102C0559590
:1003000047958A95E2F7CA01582F51705A831CC04D
:1003100089818831B8F089818032A0F4E0E3F0E08F
:100320008081282F30E08981882F90E04897A901AB
:1003300002C0559547958A95E2F7CA01582F51702A
:100340005A8302C088E08A838A810F900F90CF91F0
:10035000DF910895DF93CF9300D0CDB7DEB78983C7
:100360006A838A81882309F071C089818830A8F462
:10037000AAE3B0E0EAE3F0E08081482F8981282FEA
:1003800030E081E090E0022E02C0880F991F0A94AD
:10039000E2F7809584238C93C7C089818830D0F0A0
:1003A00089818031B8F4A7E3B0E0E7E3F0E0808131
:1003B000482F8981882F90E008979C0181E090E088
:1003C000022E02C0880F991F0A94E2F780958423B9
:1003D0008C93AAC089818031D0F089818831B8F4AA
:1003E000A4E3B0E0E4E3F0E08081482F8981882F26
:1003F00090E040979C0181E090E0022E02C0880FBF
:10040000991F0A94E2F7809584238C938DC089818B
:10041000883108F489C08981803208F085C0A1E361
:10042000B0E0E1E3F0E08081482F8981882F90E0FF
:1004300048979C0181E090E0022E02C0880F991F2E
:100440000A94E2F7809584238C936EC08A81813070
:1004500009F06AC089818830A0F4AAE3B0E0EAE339
:10046000F0E08081482F8981282F30E081E090E002
:10047000022E02C0880F991F0A94E2F7842B8C93F6
:1004800053C089818830C8F089818031B0F4A7E3F6
:10049000B0E0E7E3F0E08081482F8981882F90E089
:1004A00008979C0181E090E0022E02C0880F991FFE
:1004B0000A94E2F7842B8C9337C089818031C8F08D
:1004C00089818831B0F4A4E3B0E0E4E3F0E0808116
:1004D000482F8981882F90E040979C0181E090E02F
:1004E000022E02C0880F991F0A94E2F7842B8C9386
:1004F0001BC089818831C0F089818032A8F4A1E3D2
:10050000B0E0E1E3F0E08081482F8981882F90E01E
:1005100048979C0181E090E0022E02C0880F991F4D
:100520000A94E2F7842B8C930F900F90CF91DF9178
:100530000895DF93CF93CDB7DEB78AE060E00E94E5
:10054000AA0184E160E00E94AA01CF91DF910895A1
:10055000DF93CF930F92CDB7DEB78AE089838AE02D
:100560000E943801813019F482E0898307C084E158
:100570000E943801813011F481E0898389810F90D4
:10058000CF91DF910895EF92FF920F93DF93CF9376
:1005900000D0CDB7DEB79A83898383E061E040E085
:1005A0000E9452109093EB008093EA0083E061E098
:1005B00040E00E9452109093ED008093EC0081E0A7
:1005C0000E9402119093500780934F078DE293E0B1
:1005D00020E630E0E6EEF0E0B90146E950E020E048
:1005E00030E006E07F010E942C1F83E493E02AE6BE
:1005F00030E0B90146E950E020E030E004E0EE24CC
:10060000FF240E942C1F8AEC93E02BE730E0B90115
:1006100046E950E020E030E003E0EE24FF240E94B1
:100620002C1F81E594E02CE830E0B90146E950E068
:1006300020E030E002E0EE24FF240E942C1F809195
:10064000E8009091E9000E9473210F900F90CF91E4
:10065000DF910F91FF90EF900895DF93CF9300D03B
:10066000CDB7DEB79A8389830E9499020E941C0A43
:100670008DE061E00E94AA018091E6009091E70080
:100680000E947321F1CFDF93CF9300D000D00F925F
:10069000CDB7DEB79D838C8382E390E00E94512129
:1006A00081E08B831A8219828A81882379F40E94DF
:1006B000A802823059F40E94A80289838A818F5F40
:1006C0008A838AE090E00E945121EECF8A818130B6
:1006D00059F51DC080914F07909150076AE070E076
:1006E0000E942213882399F081E08B838091EA0095
:1006F0009091EB009E012D5F3F4FB90144E650E021
:1007000020E00E94221184E190E00E9451210E9489
:10071000A802982F89819817E9F282E08A8384E100
:1007200090E00E945121C0CF8A818230F9F48091FB
:100730004F079091500760E070E040E050E020E00B
:100740000E9422111B828091EA009091EB009E0191
:100750002D5F3F4FB90144E650E020E00E94221196
:100760001A8284E190E00E9451219ECF83E08B8326
:100770008091EA009091EB009E012D5F3F4FB901FF
:1007800044E650E020E00E94221184E190E00E94C3
:1007900051218ACFDF93CF9300D000D00F92CDB7F5
:1007A000DEB79D838C838CE390E00E94512181E031
:1007B0008B831A8219828A81882379F40E94A80285
:1007C000813059F40E94A80289838A818F5F8A83CD
:1007D0008AE090E00E945121EECF8A81813059F564
:1007E0001DC080914F07909150076AE070E00E9411
:1007F0002213882399F081E08B838091EC00909103
:10080000ED009E012D5F3F4FB90144E650E020E02E
:100810000E94221184E190E00E9451210E94A802CE
:10082000982F89819817E9F282E08A8384E190E029
:100830000E945121C0CF8A818230F9F480914F0704
:100840009091500760E070E040E050E020E00E94AE
:1008500022111B828091EC009091ED009E012D5F92
:100860003F4FB90144E650E020E00E9422111A8275
:1008700084E190E00E9451219ECF83E08B838091A0
:10088000EC009091ED009E012D5F3F4FB90144E6D1
:1008900050E020E00E94221184E190E00E9451216A
:1008A0008ACFDF93CF93CDB7DEB7C256D0400FB615
:1008B000F894DEBF0FBECDBFFE01E85BFF4F918312
:1008C000808384E690E00E9451211C821D821B825D
:1008D0001A821982CE0106962C969FAF8EAF2C9766
:1008E000E5E9F0E02E96FFAFEEAF2E97FCE02F96F5
:1008F000FFAF2F972E96EEADFFAD2E9700802E9670
:100900008EAD9FAD2E9701962E969FAF8EAF2E97F0
:100910002C96EEADFFAD2C9700822C968EAD9FAD40
:100920002C9701962C969FAF8EAF2C972F969FAD4C
:100930002F9791502F969FAF2F972F96EFAD2F9710
:10094000EE23C1F6CE01429661969FAF8EAF6197BE
:10095000E1EAF0E06396FFAFEEAF6397FCE06496E8
:10096000FFAF64976396EEADFFAD6397008063962B
:100970008EAD9FAD6397019663969FAF8EAF6397E1
:100980006196EEADFFAD6197008261968EAD9FAD31
:100990006197019661969FAF8EAF619764969FAD08
:1009A0006497915064969FAF64976496EFAD649797
:1009B000EE23C1F6CE014E9666969FAF8EAF669738
:1009C000EDEAF0E06896FFAFEEAF6897FDE069965C
:1009D000FFAF69976896EEADFFAD689700806896A7
:1009E0008EAD9FAD6897019668969FAF8EAF689762
:1009F0006696EEADFFAD6697008266968EAD9FADB2
:100A00006697019666969FAF8EAF669769969FAD83
:100A10006997915069969FAF69976996EFAD69970D
:100A2000EE23C1F6CE018B966B969FAF8EAF6B9780
:100A3000EAEBF0E06D96FFAFEEAF6D97FDE06E96DE
:100A4000FFAF6E976D96EEADFFAD6D9700806D9622
:100A50008EAD9FAD6D9701966D969FAF8EAF6D97E2
:100A60006B96EEADFFAD6B9700826B968EAD9FAD32
:100A70006B9701966B969FAF8EAF6B976E969FADFF
:100A80006E9791506E969FAF6E976E96EFAD6E9784
:100A9000EE23C1F6CE01C896A0969FAF8EAFA09769
:100AA000E7ECF0E0A296FFAFEEAFA297F0E1A396DD
:100AB000FFAFA397A296EEADFFADA2970080A296DE
:100AC0008EAD9FADA2970196A2969FAF8EAFA297D3
:100AD000A096EEADFFADA0970082A0968EAD9FAD23
:100AE000A0970196A0969FAF8EAFA097A3969FADBB
:100AF000A3979150A3969FAFA397A396EFADA3970B
:100B0000EE23C1F68A81823319F08981823349F557
:100B10008A81823379F40E949B0BCE01C8960E9491
:100B2000170B9E01225E3F4F81E060E0A9010E9409
:100B3000820B0EC00E949B0BCE01C8960E94170B21
:100B40009E01255D3F4F81E060E0A9010E94820B7C
:100B500088E893E10E9451211A8219820E949B0B1E
:100B6000D1CF8091EA009091EB009E012C5F3F4F26
:100B7000B9014AE050E00E9477128091EC00909118
:100B8000ED009E012B5F3F4FB9014AE050E00E940B
:100B900077128C81813009F043C08B81813011F450
:100BA0000E949B0B8A818F5F8A838981882319F039
:100BB0008981815089839E012A5F3F4F80E060E0F8
:100BC000A9010E94820B8A819AE0692F0E94092E56
:100BD000805D0E94AA0A8A819AE0692F0E94092EEC
:100BE000892F805D0E94AA0A9E012E5E3F4F81E000
:100BF00060E0A9010E94820B89819AE0692F0E941E
:100C0000092E805D0E94AA0A89819AE0692F0E94BC
:100C1000092E892F805D0E94AA0A1C821B8246C071
:100C20008D81813009F042C08B81813011F40E94A6
:100C30009B0B89818F5F89838A81882319F08A8140
:100C400081508A839E012A5F3F4F80E060E0A901C6
:100C50000E94820B8A819AE0692F0E94092E805D92
:100C60000E94AA0A8A819AE0692F0E94092E892F80
:100C7000805D0E94AA0A9E012E5E3F4F81E060E0E7
:100C8000A9010E94820B89819AE0692F0E94092E96
:100C9000805D0E94AA0A89819AE0692F0E94092E2C
:100CA000892F805D0E94AA0A1D821B8284E190E048
:100CB0000E94512127CFDF93CF9300D0CDB7DEB76D
:100CC0008BE090E00E94A0099A83898389819A81B0
:100CD000009749F0E981FA811182108289819A8115
:100CE00002960E94A50B89819A810F900F90CF9157
:100CF000DF910895DF93CF93CDB7DEB760970FB63E
:100D0000F894DEBF0FBECDBF9A8789877C876B873B
:100D10005E874D87388B2F8789859A859C838B8347
:100D200019820E941E23EB81FC818081918198872A
:100D30008F8389859A852B853C85B9010E9451084E
:100D40002F8138858B859C85282B392B8D859E8519
:100D5000282339238D859E8528173907C9F42F81CB
:100D600038858B859C85822B932B9E838D83EB818D
:100D7000FC81208131818D859E858095909582238F
:100D80009323EB81FC8191838083188A1F861EC088
:100D90008F859889009791F08B819C81BC016E5F53
:100DA0007F4F8D859E859C0135604F855889CB018D
:100DB000B9010E948E251E821D8208C0EB81FC8134
:100DC000808191819E838D8381E089830E942A2383
:100DD0008A838F859889009709F43AC08A8188238D
:100DE00011F40E94B70E0E94A6299E838D838D81E7
:100DF0009E8180709270009731F50FB6F8940F9233
:100E0000EB81FC81808191819E838D832D813E8148
:100E10008D859E85282339238D859E852817390742
:100E200071F4EB81FC81208131818D859E858095D7
:100E3000909582239323EB81FC81918380830F9093
:100E40000FBE81E089838D819E8190709E838D830A
:100E50008D819E8160960FB6F894DEBF0FBECDBF28
:100E6000CF91DF9108950F931F93DF93CF93CDB769
:100E7000DEB763970FB6F894DEBF0FBECDBF9D8778
:100E80008C877F876E87488B298B1B8B0A8B8C8581
:100E90009D859B878A871F821E821B820E941E233C
:100EA000EA85FB85808191819A83898389819A81F2
:100EB0002E853F85B90149890E946E098D838D81F8
:100EC0008823C1F089819A81998788871B8A1A8A29
:100ED00088898823E9F1EA85FB85208131818E8527
:100EE0009F858095909582239323EA85FB85918346
:100EF00080832EC08A899B89009739F489819A81E1
:100F00009987888781E08B8323C08889882329F08B
:100F10008E819F8191609F838E838989882329F0A8
:100F20008E819F8194609F838E838A859B85BC017F
:100F30006E5F7F4F2E853F858E819F81282B392BB9
:100F40004A895B89CB01B9010E948E2519861886D2
:100F50000E942A238C838A899B89009709F43CC0CC
:100F60008C81882311F40E94B70E0E94A6299987CC
:100F700088878885998580709270009741F50FB6B3
:100F8000F8940F92EA85FB85808191819987888703
:100F9000888599852E853F85B90149890E946E090A
:100FA000882389F08889882371F0EA85FB85208170
:100FB00031818E859F858095909582239323EA8544
:100FC000FB859183808381E08B830F900FBE8885A2
:100FD00099859070998788878885998563960FB6DB
:100FE000F894DEBF0FBECDBFCF91DF911F910F915F
:100FF0000895DF93CF93CDB7DEB728970FB6F89457
:10100000DEBF0FBECDBF9E838D8378876F838D81BA
:101010009E819C838B830FB6F8940F92EB81FC81A9
:10102000808191819A838983EB81FC812081318148
:101030008F8198858095909582239323EB81FC8105
:10104000918380830F900FBE89819A8128960FB675
:10105000F894DEBF0FBECDBFCF91DF910895DF932F
:10106000CF93CDB7DEB727970FB6F894DEBF0FBE8C
:10107000CDBF9F838E838E819F819C838B831D82B6
:10108000EB81FC81808191819A83898389819A8116
:1010900027960FB6F894DEBF0FBECDBFCF91DF917C
:1010A0000895DF93CF93CDB7DEB765970FB6F89469
:1010B000DEBF0FBECDBF9B8B8A8B7D8B6C8B198661
:1010C00018868A899B899B838A8319828A819B815E
:1010D00002969B878A878A859B8503969D878C8746
:1010E0000E941E23EA85FB8585819681998B888BDA
:1010F000EA81FB81208131818C899D89822B932B10
:10110000EA81FB819183808359C0E889F9898281D2
:1011100093819F878E87E889F989808191819F8358
:101120008E8319828E819F8180709D838C838E81B6
:101130009F8190709F838E838C819D81807094703D
:10114000009769F4EA81FB81208131818E819F8142
:1011500082239323009791F081E089830FC0EA8175
:10116000FB81208131818E819F81282339238E81CB
:101170009F812817390711F481E0898389818823A9
:10118000C9F08C819D8180709170009741F08885B5
:1011900099852E813F81822B932B99878887EA81BD
:1011A000FB81808191819C01326088899989B90194
:1011B0000E9429268E859F85998B888B288939895D
:1011C0008C859D852817390709F09FCFEA81FB811F
:1011D00020813181888599858095909582239323FC
:1011E000EA81FB81918380830E942A23EA81FB812B
:1011F0008081918165960FB6F894DEBF0FBECDBF9A
:10120000CF91DF910895DF93CF9300D000D000D02D
:10121000CDB7DEB79E838D838D819E819C838B832A
:101220008B819C8102969A8389830E941E2308C029
:10123000E981FA818581968160E072E00E94292629
:10124000E981FA818081882399F78B819C810E94B2
:10125000F6090E942A2326960FB6F894DEBF0FBE29
:10126000CDBFCF91DF910895DF93CF9300D000D011
:1012700000D0CDB7DEB79A8389834B835C836D83BF
:101280007E8389819A812B813C81B9010E9451081A
:1012900026960FB6F894DEBF0FBECDBFCF91DF917B
:1012A0000895DF93CF9300D000D000D0CDB7DEB744
:1012B0009A8389834B835C836D837E8389819A8142
:1012C0002B813C81B9010E94F90726960FB6F8944C
:1012D000DEBF0FBECDBFCF91DF910895DF93CF93D7
:1012E00000D000D000D0CDB7DEB79B838A837D834A
:1012F0006C834E8319828E81882359F48A819B8165
:101300002C813D8182239323009781F081E08983A2
:101310000DC02A813B818C819D81282339238C81BA
:101320009D812817390711F481E0898389812696E8
:101330000FB6F894DEBF0FBECDBFCF91DF910895F9
:10134000DF93CF9300D000D0CDB7DEB79C838B83E3
:101350001A8219820E941E238091F0009091F10060
:10136000009731F483EF90E09093F1008093F000C8
:101370008091EE009091EF002B813C81820F931FB2
:1013800025E08B3D920738F52091EE003091EF007B
:101390008B819C81280F391F8091EE009091EF0086
:1013A00082179307C0F42091F0003091F1008091F2
:1013B000EE009091EF00820F931F9A838983209112
:1013C000EE003091EF008B819C81820F931F9093F0
:1013D000EF008093EE000E942A2389819A810F906A
:1013E0000F900F900F90CF91DF910895DF93CF93DF
:1013F00000D0CDB7DEB79A8389830F900F90CF913D
:10140000DF910895DF93CF93CDB7DEB71092EF0051
:101410001092EE00CF91DF910895DF93CF93CDB777
:10142000DEB72091EE003091EF008BED95E0821B4E
:10143000930BCF91DF910895DF93CF93CDB7DEB7B4
:10144000AAE3B0E0EAE3F0E080818E608C93AAE347
:10145000B0E0EAE3F0E08081806F8C9382E00E944C
:101460003D0A88E20E943D0A8CE00E943D0A81E02C
:101470000E943D0ACF91DF910895DF93CF930F92A1
:10148000CDB7DEB78983ABE3B0E0EBE3F0E080817A
:101490008D7F8C93ABE3B0E0EBE3F0E080818B7F5A
:1014A0008C9381E090E00E945121ABE3B0E0EBE34C
:1014B000F0E0808188608C9381E090E00E9451216F
:1014C000ABE3B0E0EBE3F0E08081982F9F7089817F
:1014D000807F892B8C9381E090E00E945121ABE3C7
:1014E000B0E0EBE3F0E08081877F8C9381E090E0D7
:1014F0000E945121ABE3B0E0EBE3F0E08081886033
:101500008C9381E090E00E945121ABE3B0E0EBE3EB
:10151000F0E08081282F2F708981882F90E08295BC
:101520009295907F9827807F9827822B8C9381E0DB
:1015300090E00E945121ABE3B0E0EBE3F0E080816A
:10154000877F8C9381E090E00E9451210F90CF9192
:10155000DF910895DF93CF930F92CDB7DEB78983E4
:10156000ABE3B0E0EBE3F0E0808182608C93ABE32F
:10157000B0E0EBE3F0E080818B7F8C9381E090E042
:101580000E945121ABE3B0E0EBE3F0E080818860A2
:101590008C9381E090E00E945121ABE3B0E0EBE35B
:1015A000F0E08081982F9F708981807F892B8C93B8
:1015B00081E090E00E945121ABE3B0E0EBE3F0E08A
:1015C0008081877F8C9381E090E00E945121ABE382
:1015D000B0E0EBE3F0E0808188608C9381E090E004
:1015E0000E945121ABE3B0E0EBE3F0E08081282FD3
:1015F0002F708981882F90E082959295907F98270F
:10160000807F9827822B8C9381E090E00E9451216B
:10161000ABE3B0E0EBE3F0E08081877F8C9381E087
:1016200090E00E9451210F90CF91DF910895DF93B8
:10163000CF9300D00F92CDB7DEB79B838A831982F8
:101640000EC08981282F30E08A819B81FC01E20F46
:10165000F31F80810E94AA0A89818F5F8983898113
:10166000282F30E08A819B81FC01E20FF31F8081EB
:10167000882339F70F900F900F90CF91DF91089545
:10168000DF93CF9300D000D00F92CDB7DEB78A831F
:101690006B838A81282F30E03D832C838C819D8150
:1016A00081309105C1F02C813D81223031052CF42F
:1016B0008C819D81009761F019C02C813D81223081
:1016C000310569F08C819D818330910561F00EC0F8
:1016D0008B8189830BC08B81805C898307C08B8160
:1016E000805F898303C08B81805B89838981806867
:1016F0000E943D0A0F900F900F900F900F90CF9186
:10170000DF910895DF93CF9300D000D0CDB7DEB73F
:1017100089836A835C834B8389816A810E94400B41
:101720008B819C810E94170B0F900F900F900F9050
:10173000CF91DF910895DF93CF93CDB7DEB781E0EE
:101740000E943D0ACF91DF910895DF93CF9300D09F
:10175000CDB7DEB79A83898389819A810396E9811F
:10176000FA8192838183E981FA818FEF9FEF9483DD
:10177000838389819A810396E981FA81968385839F
:1017800089819A810396E981FA8190878783E9812B
:10179000FA8110820F900F90CF91DF910895DF931F
:1017A000CF9300D0CDB7DEB79A838983E981FA81E0
:1017B000118610860F900F90CF91DF910895DF93DF
:1017C000CF9300D000D000D0CDB7DEB79C838B8301
:1017D0007E836D83EB81FC81818192819A838983F1
:1017E000ED81FE8189819A8193838283E981FA81E7
:1017F00084819581ED81FE8195838483E981FA81DD
:101800000480F581E02D8D819E8193838283E9811F
:10181000FA818D819E8195838483ED81FE818B8108
:101820009C8191878087EB81FC8180818F5FEB8138
:10183000FC81808326960FB6F894DEBF0FBECDBF25
:10184000CF91DF910895DF93CF93CDB7DEB728977F
:101850000FB6F894DEBF0FBECDBF9E838D83788711
:101860006F83EF81F885808191819A838983898153
:101870009A812FEF8F3F920739F4ED81FE818781A6
:1018800090859C838B8318C08D819E8103969C8359
:101890008B8306C0EB81FC81828193819C838B8347
:1018A000EB81FC810280F381E02D208131818981EF
:1018B0009A818217930770F7EB81FC818281938173
:1018C000EF81F88593838283EF81F8850280F3812D
:1018D000E02D8F81988595838483EF81F8858B81B6
:1018E0009C8195838483EB81FC818F819885938390
:1018F0008283EF81F8858D819E8191878087ED813C
:10190000FE8180818F5FED81FE81808328960FB6F6
:10191000F894DEBF0FBECDBFCF91DF910895DF9366
:10192000CF9300D000D0CDB7DEB79C838B83EB8103
:10193000FC81808591859A838983EB81FC81A281DA
:10194000B381EB81FC818481958115969C938E9364
:101950001497EB81FC81A481B581EB81FC818281AC
:10196000938113969C938E931297E981FA8121813A
:1019700032818B819C812817390741F4EB81FC81EE
:1019800084819581E981FA8192838183EB81FC8155
:1019900011861086E981FA8180818150E981FA817E
:1019A0008083E981FA8180810F900F900F900F90D2
:1019B000CF91DF910895EF92FF920F93DF93CF9332
:1019C000CDB7DEB783EC92E027ED30E0E8EEF0E053
:1019D000B90146E950E020E030E005E07F010E94D7
:1019E0002C1F8CE061E00E94AA010E94E022FFCF40
:1019F000DF93CF93CDB7DEB728970FB6F894DEBF4D
:101A00000FBECDBF9C838B837E836D8358874F83AE
:101A1000EB81FC8181E180838B819C8101979C8398
:101A20008B83EB81FC8182E280838B819C81019797
:101A30009C838B83EB81FC8183E380838B819C81FE
:101A400001979C838B838D819E819A838983898171
:101A5000EB81FC8180838B819C8101979C838B83AC
:101A600089819A81892F99279A8389838981EB813A
:101A7000FC8180838B819C8101979C838B83EB818C
:101A8000FC8110828B819C8101979C838B83EB81ED
:101A9000FC8180E880838B819C8101979C838B8370
:101AA000EB81FC8110828B819C8101979C838B83CD
:101AB000EB81FC8182E080838B819C8101979C83F8
:101AC0008B83EB81FC8183E080838B819C810197F8
:101AD0009C838B83EB81FC8184E080838B819C8160
:101AE00001979C838B83EB81FC8185E080838B81D4
:101AF0009C8101979C838B83EB81FC8186E08083B2
:101B00008B819C8101979C838B83EB81FC8187E097
:101B100080838B819C8101979C838B83EB81FC81EB
:101B200088E080838B819C8101979C838B83EB81F0
:101B3000FC8189E080838B819C8101979C838B83CE
:101B4000EB81FC8180E180838B819C8101979C8368
:101B50008B83EB81FC8181E180838B819C81019768
:101B60009C838B83EB81FC8182E180838B819C81D0
:101B700001979C838B83EB81FC8183E180838B8144
:101B80009C8101979C838B83EB81FC8184E1808322
:101B90008B819C8101979C838B83EB81FC8185E108
:101BA00080838B819C8101979C838B83EB81FC815B
:101BB00086E180838B819C8101979C838B83EB8161
:101BC000FC8187E180838B819C8101979C838B833F
:101BD000EB81FC8188E180838B819C8101979C83D0
:101BE0008B83EB81FC8189E180838B819C810197D0
:101BF0009C838B83EB81FC8180E280838B819C8141
:101C000001979C838B83EB81FC8181E280838B81B4
:101C10009C8101979C838B83EB81FC8182E2808392
:101C20008B819C8101979C838B83EB81FC8183E278
:101C300080838B819C8101979C838B838F81988586
:101C40009A8389838981EB81FC8180838B819C814C
:101C500001979C838B8389819A81892F99279A8305
:101C600089838981EB81FC8180838B819C810197B1
:101C70009C838B83EB81FC8186E280838B819C81BA
:101C800001979C838B83EB81FC8187E280838B812E
:101C90009C8101979C838B83EB81FC8188E280830C
:101CA0008B819C8101979C838B83EB81FC8189E2F2
:101CB00080838B819C8101979C838B83EB81FC814A
:101CC00080E380838B819C8101979C838B83EB8154
:101CD000FC8181E380838B819C8101979C838B8332
:101CE0008B819C8128960FB6F894DEBF0FBECDBFC6
:101CF000CF91DF910895DF93CF93CDB7DEB70E94E8
:101D00006D0FA091CE06B091CF06CD91CDBFDD91E4
:101D1000DEBFFF91EF91DF91CF91BF91AF919F9186
:101D20008F917F916F915F914F913F912F911F9173
:101D30000F91FF90EF90DF90CF90BF90AF909F906A
:101D40008F907F906F905F904F903F902F901F905B
:101D50000F900FBE0F90089581E0CF91DF9108950D
:101D6000DF93CF93CDB7DEB7CF91DF9108950F9278
:101D70000FB6F8940F921F9211242F923F924F9218
:101D80005F926F927F928F929F92AF92BF92CF920B
:101D9000DF92EF92FF920F931F932F933F934F93F6
:101DA0005F936F937F938F939F93AF93BF93CF93E3
:101DB000DF93EF93FF93A091CE06B091CF060DB6BF
:101DC0000D920EB60D920E94FF24A091CE06B09106
:101DD000CF06CD91CDBFDD91DEBFFF91EF91DF91B9
:101DE000CF91BF91AF919F918F917F916F915F91B3
:101DF0004F913F912F911F910F91FF90EF90DF90A6
:101E0000CF90BF90AF909F908F907F906F905F909A
:101E10004F903F902F901F900F900FBE0F900895FE
:101E20000F920FB6F8940F921F9211242F923F92A7
:101E30004F925F926F927F928F929F92AF92BF92DA
:101E4000CF92DF92EF92FF920F931F932F933F93C6
:101E50004F935F936F937F938F939F93AF93BF93B2
:101E6000CF93DF93EF93FF93A091CE06B091CF066F
:101E70000DB60D920EB60D920E941A24882311F011
:101E80000E94FF24A091CE06B091CF06CD91CDBF88
:101E9000DD91DEBFFF91EF91DF91CF91BF91AF91C7
:101EA0009F918F917F916F915F914F913F912F9172
:101EB0001F910F91FF90EF90DF90CF90BF90AF9068
:101EC0009F908F907F906F905F904F903F902F905A
:101ED0001F900F900FBE0F900895DF93CF9300D007
:101EE00000D000D0CDB7DEB780E49FE1A0E0B0E045
:101EF0008B839C83AD83BE838B819C81AD81BE81AE
:101F0000689415F8B695A795979587951694D1F787
:101F10008B839C83AD83BE838B819C81AD81BE818D
:101F20000197A109B1098B839C83AD83BE838B810B
:101F300089838B819C81AD81BE81892F9A2FAB2FA4
:101F4000BB278B839C83AD83BE838B818A83EBE429
:101F5000F0E08A818083EAE4F0E0898180838BE08D
:101F60008983EEE4F0E089818083E9E5F0E0808117
:101F70008983898180618983E9E5F0E089818083B3
:101F800026960FB6F894DEBF0FBECDBFCF91DF917E
:101F900008950E94100F1895DF93CF9300D000D0C2
:101FA0000F92CDB7DEB79C838B836D838B819C8131
:101FB0009A8389830FB6F8940F92E981FA81408160
:101FC0005181E981FA81838D282F30E0E981FA81FE
:101FD000848D882F90E0BC01269FC001279F900D23
:101FE000369F900D1124840F951FE981FA81958306
:101FF0008483E981FA81128EE981FA81808191815D
:10200000E981FA8193838283E981FA814081518158
:10201000E981FA81838D882F90E09C012150304026
:10202000E981FA81848D882F90E0BC01269FC00150
:10203000279F900D369F900D1124840F951FE981E5
:10204000FA8197838683E981FA818FEF858FE98111
:10205000FA818FEF868F8D81882379F4E981FA8167
:1020600080858823A1F089819A8108960E94BE25E7
:10207000882369F00E94B70E0AC089819A81089668
:102080000E94A50B89819A8141960E94A50B0F9011
:102090000FBE81E00F900F900F900F900F90CF9197
:1020A000DF9108950F931F93DF93CF93CDB7DEB7E2
:1020B00029970FB6F894DEBF0FBECDBF8F83688718
:1020C00049878885882319F41C821B8210C08F8160
:1020D000282F30E08885882F90E0AC01249FC00134
:1020E000259F900D349F900D11249C838B838B81B1
:1020F0009C814F960E94A0099E838D838D819E8135
:102100000097A1F08D819E819A83898389819A812C
:102110004F969A83898329813A81ED81FE818F814F
:102120006885A90129858F010E94A3108D819E8158
:1021300029960FB6F894DEBF0FBECDBFCF91DF91C9
:102140001F910F9108950F931F93DF93CF93CDB7F6
:10215000DEB727970FB6F894DEBF0FBECDBF8983D9
:102160006A835C834B832D831F830E838A8188233C
:1021700039F48E819F81EE81FF819183808306C037
:102180008B819C81EE81FF8191838083EE81FF8131
:102190008981838FEE81FF818A81848F8E819F81E7
:1021A00061E00E94CC0F27960FB6F894DEBF0FBEF9
:1021B000CDBFCF91DF911F910F910895DF93CF9302
:1021C00000D0CDB7DEB79A83898389819A81009741
:1021D000A1F0E981FA8115821482E981FA811182E4
:1021E0001082E981FA81168289819A8160E070E02B
:1021F00040E050E020E00E9422110F900F90CF911C
:10220000DF910895DF93CF9300D000D00F92CDB728
:10221000DEB78D8381E08A8319828A8169814D814D
:102220000E9452109C838B838B819C810E94DE10C4
:102230008B819C810F900F900F900F900F90CF91FA
:10224000DF910895DF93CF93CDB7DEB72F970FB609
:10225000F894DEBF0FBECDBF998788877B876A87DA
:102260005D874C872E871C82888599859A83898310
:102270000FB6F8940F92E981FA81928DE981FA8183
:10228000838D981718F08E85823011F589819A8197
:102290002A853B85B9014E850E94C8158B83E9814B
:1022A000FA818189882351F089819A8141960E941F
:1022B000BE25882341F00E94B70E05C08B8188237C
:1022C00011F00E94B70E0F900FBE81E08F875CC0A7
:1022D0008C859D85009721F40F900FBE1F8654C0FA
:1022E0008C81882331F4CE0105960E94A42681E0DA
:1022F0008C830F900FBE0E941E230FB6F8940F928E
:10230000E981FA81858D8F3F19F4E981FA81158E73
:10231000E981FA81868D8F3F19F4E981FA81168E61
:102320000F900FBECE0105969E01245F3F4FB9016D
:102330000E94BD26882309F589819A810E9456173B
:102340008823A1F089819A8108962C853D85B90161
:102350000E946C2589819A810E94C7160E942A23B7
:10236000882309F085CF0E94B70E82CF89819A8198
:102370000E94C7160E942A237BCF89819A810E94DE
:10238000C7160E942A231F868F852F960FB6F894B2
:10239000DEBF0FBECDBFCF91DF910895DF93CF9306
:1023A000CDB7DEB72C970FB6F894DEBF0FBECDBF0A
:1023B0009F838E83798768875B874A872C878E8186
:1023C0009F819B838A831C82EA81FB81928DEA81B3
:1023D000FB81838D981718F08C85823061F5EA8136
:1023E000FB81868D89838A819B8128853985B90106
:1023F0004C850E94C81589818F3FA9F4EA81FB8131
:1024000081898823A9F08A819B8141960E94BE25FB
:10241000882371F08A859B85009751F0EA85FB85BA
:1024200081E0808305C089818F5FEA81FB81868F8F
:1024300081E08D8301C01D828D812C960FB6F894AA
:10244000DEBF0FBECDBFCF91DF910895DF93CF9355
:10245000CDB7DEB72A970FB6F894DEBF0FBECDBF5B
:1024600098878F837A8769878F8198859C838B83F0
:102470001D82EB81FC81828D8A83EB81FC81938DAF
:102480008A81891748F5EB81FC81868D89838A8151
:102490008F5FEB81FC81828F89818F3FA9F4EB8173
:1024A000FC8181898823A9F08B819C8141960E94BF
:1024B000BE25882371F089859A85009751F0E985BA
:1024C000FA8581E0808305C089818F5FEB81FC8183
:1024D000868F81E08E8301C01E828E812A960FB680
:1024E000F894DEBF0FBECDBFCF91DF910895DF938B
:1024F000CF93CDB7DEB72E970FB6F894DEBF0FBEE1
:10250000CDBF998788877B876A875D874C871C82C8
:10251000888599859B838A830FB6F8940F92EA8108
:10252000FB81828D898389818823F9F08A819B814F
:102530002A853B85B9010E94801689818150EA81F4
:10254000FB81828FEA81FB818085882349F08A8123
:102550009B8108960E94BE25882311F00E94B70E29
:102560000F900FBE81E08E8763C08C859D8500979C
:1025700021F40F900FBE1E865BC08C81882331F43E
:10258000CE0105960E94A42681E08C830F900FBE99
:102590000E941E230FB6F8940F92EA81FB81858D6D
:1025A0008F3F19F4EA81FB81158EEA81FB81868DCC
:1025B0008F3F19F4EA81FB81168E0F900FBECE017A
:1025C00005969E01245F3F4FB9010E94BD268823D6
:1025D00009F58A819B810E941A178823A1F08A81BC
:1025E0009B8141962C853D85B9010E946C258A818D
:1025F0009B810E94C7160E942A23882309F08CCF52
:102600000E94B70E89CF8A819B810E94C7160E94C3
:102610002A2382CF8A819B810E94C7160E942A2387
:102620008A819B810E941A17882309F475CF1E8620
:102630008E852E960FB6F894DEBF0FBECDBFCF911C
:10264000DF910895DF93CF93CDB7DEB72E970FB606
:10265000F894DEBF0FBECDBF9B878A877D876C87CE
:102660001E828A859B859D838C831B820FB6F8947E
:102670000F92EC81FD81828D8A838A81882321F1EA
:102680008A818150EC81FD81828FEC81FD81808186
:102690009181009731F40E94CD29EC81FD819583D1
:1026A0008483EC81FD818085882349F08C819D8124
:1026B00008960E94BE25882311F00E94B70E0F9045
:1026C0000FBE81E08E8789C08C859D85009721F49F
:1026D0000F900FBE1E8681C08E81882331F4CE01FB
:1026E00007960E94A42681E08E830F900FBE0E9461
:1026F0001E230FB6F8940F92EC81FD81858D8F3FDC
:1027000019F4EC81FD81158EEC81FD81868D8F3F62
:1027100019F4EC81FD81168E0F900FBECE01079645
:102720009E01245F3F4FB9010E94BD26882399F581
:102730008C819D810E941A17882331F1EC81FD81E3
:1027400080819181009761F40FB6F8940F92EC812B
:10275000FD81848195810E9401288B830F900FBE9B
:102760008C819D8141962C853D85B9010E946C2507
:102770008C819D810E94C7160E942A23882309F01C
:1027800075CF0E94B70E72CF8C819D810E94C716B3
:102790000E942A236BCF8C819D810E94C7160E94C4
:1027A0002A238C819D810E941A17882309F45ECF09
:1027B0008B81882389F00FB6F8940F928C819D81CC
:1027C0000E94A7158983EC81FD81848195816981AF
:1027D0000E9411290F900FBE1E868E852E960FB671
:1027E000F894DEBF0FBECDBFCF91DF910895DF9388
:1027F000CF93CDB7DEB760970FB6F894DEBF0FBEAC
:10280000CDBF9B878A877D876C875F874E871E82B7
:102810008A859B859B838A830FB6F8940F92EA8101
:10282000FB81828D89838981882331F1EA81FB8153
:10283000868197819D838C838A819B812C853D85B0
:10284000B9010E948016EA81FB818C819D8197836A
:102850008683EA81FB818189882349F08A819B8173
:1028600041960E94BE25882311F00E94B70E0F905A
:102870000FBE81E0888B63C08E859F85009721F411
:102880000F900FBE188A5BC08E81882331F4CE0171
:1028900007960E94A42681E08E830F900FBE0E94AF
:1028A0001E230FB6F8940F92EA81FB81858D8F3F2E
:1028B00019F4EA81FB81158EEA81FB81868D8F3FB9
:1028C00019F4EA81FB81168E0F900FBECE01079698
:1028D0009E01225F3F4FB9010E94BD26882309F562
:1028E0008A819B810E941A178823A1F08A819B818B
:1028F00041962E853F85B9010E946C258A819B8176
:102900000E94C7160E942A23882309F085CF0E94BF
:10291000B70E82CF8A819B810E94C7160E942A230C
:102920007BCF8A819B810E94C7160E942A238A81BD
:102930009B810E941A17882309F46ECF188A888910
:1029400060960FB6F894DEBF0FBECDBFCF91DF917A
:102950000895DF93CF93CDB7DEB72C970FB6F894D9
:10296000DEBF0FBECDBF98878F837A8769875C876C
:102970004B878F8198859C838B831D82EB81FC81A3
:10298000828D8A838A81882381F1EB81FC81858D08
:1029900089838B819C8129853A85B9010E948016A3
:1029A0008A818150EB81FC81828F89818F3FA9F4DC
:1029B000EB81FC8180858823A9F08B819C8108961E
:1029C0000E94BE25882371F08B859C85009751F06D
:1029D000EB85FC8581E0808305C089818F5FEB8179
:1029E000FC81858F81E08E8301C01E828E812C96B2
:1029F0000FB6F894DEBF0FBECDBFCF91DF91089523
:102A0000DF93CF93CDB7DEB72A970FB6F894DEBF2A
:102A10000FBECDBF98878F837A8769878F8198850E
:102A20009A8389831D82E981FA81828D8823B1F09E
:102A3000E981FA81868197819C838B8389819A8140
:102A400029853A85B9010E948016E981FA818B8136
:102A50009C819783868381E08E8301C01E828E8154
:102A60002A960FB6F894DEBF0FBECDBFCF91DF918F
:102A70000895DF93CF9300D00F92CDB7DEB79B833D
:102A80008A830FB6F8940F92EA81FB81828D898345
:102A90000F900FBE89810F900F900F90CF91DF9113
:102AA0000895DF93CF9300D000D00F92CDB7DEB75B
:102AB0009D838C838C819D819A8389830FB6F89442
:102AC0000F92E981FA81938DE981FA81828D292F14
:102AD000281B822F8B830F900FBE8B810F900F903E
:102AE0000F900F900F90CF91DF910895DF93CF93C8
:102AF00000D000D00F92CDB7DEB79D838C838C8140
:102B00009D819A838983E981FA81828D8B838B8170
:102B10000F900F900F900F900F90CF91DF9108952D
:102B2000DF93CF9300D000D0CDB7DEB79C838B83EB
:102B30008B819C819A83898389819A810E94F6097D
:102B40000F900F900F900F90CF91DF910895DF932A
:102B5000CF9300D00F92CDB7DEB79B838A83EA81F3
:102B6000FB818189882361F0EA81FB810688F789EE
:102B7000E02D80819181982F87E0891B898301C096
:102B8000198289810F900F900F90CF91DF91089556
:102B9000DF93CF93CDB7DEB727970FB6F894DEBF9C
:102BA0000FBECDBF9C838B837E836D834F831A8240
:102BB000EB81FC81828D8983EB81FC81848D88236C
:102BC00099F4EB81FC8180819181009709F089C0A3
:102BD000EB81FC81848195810E949F288A83EB810F
:102BE000FC81158214827DC08F81882399F5EB8149
:102BF000FC8162817381EB81FC81848D482F50E0E0
:102C00002D813E81CB01B9010E94152EEB81FC8103
:102C100022813381EB81FC81848D882F90E0820FAB
:102C2000931FEB81FC8193838283EB81FC81228162
:102C30003381EB81FC81848195812817390708F461
:102C400050C0EB81FC8180819181EB81FC81938379
:102C5000828347C0EB81FC8166817781EB81FC81B7
:102C6000848D482F50E02D813E81CB01B9010E9417
:102C7000152EEB81FC8126813781EB81FC81848DCF
:102C8000882F90E0909581959F4F820F931FEB8145
:102C9000FC8197838683EB81FC8126813781EB81E0
:102CA000FC81808191812817390790F4EB81FC81A8
:102CB00024813581EB81FC81848D882F90E0909573
:102CC00081959F4F820F931FEB81FC8197838683B1
:102CD0008F81823031F48981882319F08981815074
:102CE000898389818F5FEB81FC81828F8A8127961E
:102CF0000FB6F894DEBF0FBECDBFCF91DF91089520
:102D0000DF93CF9300D000D0CDB7DEB79A8389830D
:102D10007C836B83E981FA81848D882389F1E98141
:102D2000FA8126813781E981FA81848D882F90E0AC
:102D3000820F931FE981FA8197838683E981FA8163
:102D400026813781E981FA818481958128173907A5
:102D500040F0E981FA8180819181E981FA8197834C
:102D60008683E981FA8146815781E981FA81848DE0
:102D7000282F30E08B819C81BA01A9010E94152E79
:102D80000F900F900F900F90CF91DF910895DF93E8
:102D9000CF9300D000D0CDB7DEB79C838B830FB626
:102DA000F8940F92EB81FC81868D8A8311C0EB81B0
:102DB000FC818189882379F08B819C8141960E94D6
:102DC000BE25882311F00E942A278A8181508A8398
:102DD0008A81181664F3EB81FC818FEF868F0F9048
:102DE0000FBE0FB6F8940F92EB81FC81858D89831D
:102DF00011C0EB81FC818085882379F08B819C81D7
:102E000008960E94BE25882311F00E942A278981F6
:102E1000815089838981181664F3EB81FC818FEFDF
:102E2000858F0F900FBE0F900F900F900F90CF9146
:102E3000DF910895DF93CF9300D00F92CDB7DEB727
:102E40009B838A830FB6F8940F92EA81FB81828D6F
:102E5000882319F481E0898301C019820F900FBE85
:102E600089810F900F900F90CF91DF910895DF939C
:102E7000CF9300D000D00F92CDB7DEB79D838C8367
:102E80008C819D819A838983E981FA81828D88234F
:102E900019F481E08B8301C01B828B810F900F900E
:102EA0000F900F900F90CF91DF910895DF93CF9304
:102EB00000D00F92CDB7DEB79B838A830FB6F8940C
:102EC0000F92EA81FB81928DEA81FB81838D9817B5
:102ED00019F481E0898301C019820F900FBE8981A6
:102EE0000F900F900F90CF91DF910895DF93CF93C4
:102EF00000D000D00F92CDB7DEB79D838C838C813C
:102F00009D819A838983E981FA81928DE981FA8191
:102F1000838D981719F481E08B8301C01B828B810C
:102F20000F900F900F900F900F90CF91DF91089519
:102F30000F93DF93CF93CDB7DEB728970FB6F894F2
:102F4000DEBF0FBECDBF9D838C837F836E8348879A
:102F50008885813019F481E0898301C019828E81CE
:102F60009F81009721F481E090E09F838E838C8184
:102F70009D8101969D838C838C819D810F960E94FB
:102F8000A0099B838A838A819B81009789F06A814B
:102F90007B818A819B819C01215F3F4F4C815D81B8
:102FA000EE81FF81CB01B9019F0109810E94F01ED2
:102FB0008A819B8128960FB6F894DEBF0FBECDBFE5
:102FC000CF91DF910F910895DF93CF9300D000D080
:102FD000CDB7DEB79C838B838B819C819A83898359
:102FE000E981FA818685882F90E082709070009741
:102FF00029F489819A810E94F60908C089819A8101
:1030000060E070E04FE050E00E941E2E0F900F90A5
:103010000F900F90CF91DF9108950F93DF93CF938F
:1030200000D000D00F92CDB7DEB79D838C838C810A
:103030009D819B838A8319820FB6F8940F92EA814F
:10304000FB81808591850097F1F4EA81FB8182857F
:1030500093850097C1F4EA81FB8124853585EA8157
:10306000FB8144815581EA81FB81A681B781EA8198
:10307000FB81E6858A819B81B9019D010E2F0E940B
:10308000F01E81E089830F900FBE89810F900F9011
:103090000F900F900F90CF91DF910F910895DF93D4
:1030A000CF93CDB7DEB727970FB6F894DEBF0FBE2C
:1030B000CDBF9D838C837F836E838C819D819B8319
:1030C0008A838E819F81009721F481E090E09F8325
:1030D0008E83EA81FB81248135818E819F8128172F
:1030E000390748F0EA81FB818E819F81978386832F
:1030F00081E0898301C01982898127960FB6F894EF
:10310000DEBF0FBECDBFCF91DF910895DF93CF9388
:1031100000D000D000D0CDB7DEB79E838D838D81E7
:103120009E819C838B83EB81FC8124813581EB81A3
:10313000FC8180819181820F931F9A838983EB8127
:10314000FC812281338189819A81821B930B9A832E
:10315000898389819A8101979A838983EB81FC8194
:103160002481358189819A818217930750F0EB8100
:10317000FC812481358189819A81821B930B9A83FA
:10318000898389819A8126960FB6F894DEBF0FBE97
:10319000CDBFCF91DF910895DF93CF9300D000D0C2
:1031A00000D0CDB7DEB79E838D838D819E819C83B9
:1031B0008B838B819C810E94B61E9A83898389812F
:1031C0009A8126960FB6F894DEBF0FBECDBFCF9181
:1031D000DF910895EF92FF920F931F93DF93CF93A8
:1031E000CDB7DEB763970FB6F894DEBF0FBECDBF85
:1031F0009D878C877F876E87598B488B3B8B2A8B6B
:103200008C859D8598878F831C821B8288899989EC
:103210009A838983EF81F8858685882F90E0817075
:103220009070882329F089819A8102969A838983F4
:103230008A899B89009709F440C0CE0109960E94B3
:1032400086260FB6F8940F928F8198850E94861873
:103250009C838B832B813C8189819A812817390734
:1032600050F580E090E00E94532D0E94EF27EF81FF
:10327000F885938782870F900FBEEA89FB8960E00B
:1032800070E080E090E020E030E040E050E000E0DE
:1032900010E07F010E945C2AEF81F8851386128678
:1032A000CE0109969E012E5E3F4FB9010E94BD26B8
:1032B000882339F202C00F900FBE8B819C8100974A
:1032C00031F48F8198850E9486189C838B838F812F
:1032D00098852E853F8548895989EB81FC81A98194
:1032E000BA81B9019F018D010E942F1A9E838D839F
:1032F0008D819E81009739F18F8198850E94B61E3D
:103300009C01EF81F8858681978128173907D8F0CD
:103310000E941E23EF81F88580859185009789F0B2
:10332000EF81F8858085918540E050E060E070E0B5
:1033300020E000E010E00E94F82AEF81F885118675
:1033400010860E942A238D819E8163960FB6F89481
:10335000DEBF0FBECDBFCF91DF911F910F91FF90C8
:10336000EF900895EF92FF920F931F93DF93CF9307
:10337000CDB7DEB761970FB6F894DEBF0FBECDBFF5
:103380009B878A877D876C875F874E87398B288BE1
:103390008A859B85998788878E859F859B838A836D
:1033A000E885F9858685882F90E081709070882364
:1033B00029F08A819B8102969B838A8388859985DF
:1033C0000E9486189D838C83888599852C853D85F0
:1033D0004E855F85EC81FD81AA81BB81B9019F018A
:1033E0008D010E942F1A9F838E838E819F8100976B
:1033F00039F1888599850E94B61E9C01E885F9857A
:103400008681978128173907D8F01982E885F985D0
:10341000808591850097A1F0E885F9858085918563
:10342000E889F98940E050E060E070E020E000E0E9
:1034300010E07F010E94D52BE885F9851186108662
:103440008E819F8161960FB6F894DEBF0FBECDBF0F
:10345000CF91DF911F910F91FF90EF9008950F93FF
:103460001F93DF93CF93CDB7DEB761970FB6F89474
:10347000DEBF0FBECDBF9D838C837F836E83598754
:1034800048873B872A871D870C878A859B850097FD
:1034900011F41B8238C0EC81FD818685882F90E075
:1034A000817090700097D1F481E08B8328853985F5
:1034B000398B288B8A859B859F878E872E853F85B4
:1034C000888999898217930720F4288939893F8749
:1034D0002E878E859F859987888715C02A853B858D
:1034E0008C859D852817390768F081E08B839E01C4
:1034F000285F3F4F8C819D81B90142E050E00E94DE
:103500007C1D01C01B828B81882361F02E813F814D
:10351000488559858C819D81B9010E947C1D9A83C3
:10352000898302C01A82198289819A8161960FB6B5
:10353000F894DEBF0FBECDBFCF91DF911F910F91E9
:103540000895EF92FF920F931F93DF93CF93CDB720
:10355000DEB760970FB6F894DEBF0FBECDBF9A8777
:1035600089877C876B875E874D87388B2F87898516
:103570009A8598878F831E821D82EF81F8858685C4
:10358000882F90E081709070882329F082E090E08D
:103590009A83898302C01A8219828F85988900973D
:1035A00009F43DC00FB6F8940F928F8198850E9460
:1035B000B61E9C838B832B813C8189819A818217E3
:1035C000930750F080E090E00E94532D0E94EF2777
:1035D000EF81F885918780870F900FBE2B813C810A
:1035E00089819A818217930700F1EF85F88960E05D
:1035F00070E080E090E020E030E040E050E000E06B
:1036000010E07F010E945C2AEF81F8851186108608
:103610008F8198850E94B61E9C838B8306C08F8104
:1036200098850E94B61E9C838B832B813C81898167
:103630009A818217930780F58F8198852B853C8529
:103640004D855E85EB81FC81A981BA81B9019F011D
:103650008D010E94251C9E838D838D819E81009704
:10366000D9F00E941E23EF81F8858285938500970B
:1036700089F0EF81F8858285938540E050E060E035
:1036800070E020E000E010E00E94F82AEF81F88569
:10369000138612860E942A238D819E8160960FB622
:1036A000F894DEBF0FBECDBFCF91DF911F910F9178
:1036B000FF90EF900895DF93CF93CDB7DEB72C97AF
:1036C0000FB6F894DEBF0FBECDBF9C878B878B856E
:1036D0009C8598878F83EF81F8858685882F90E079
:1036E00081709070882361F18F8198850E94B61E49
:1036F0009C838B838B819C8183309105F0F0EF81DB
:10370000F885808191819A8389839E01275F3F4F4D
:103710008F819885EB81FC81B90142E050E09F01E7
:103720000E94091E89859A859E838D83EF81F88585
:1037300089819A819183808305C01E821D8202C087
:103740001E821D828D819E812C960FB6F894DEBF5D
:103750000FBECDBFCF91DF910895EF92FF920F93EF
:103760001F93DF93CF93CDB7DEB761970FB6F89471
:10377000DEBF0FBECDBF9B878A877D876C875F8743
:103780004E87398B288B8A859B85998788871F82EE
:103790001E82E885F9858685882F90E0817090707B
:1037A000882329F082E090E09B838A8302C01B82F9
:1037B0001A82888599850E94B61E9D838C832C81F0
:1037C0003D818A819B818217930780F58885998541
:1037D0002C853D854E855F85EC81FD81AA81BB816D
:1037E000B9019F018D010E94251C9F838E838E81CC
:1037F0009F810097D9F01982E885F98582859385A4
:103800000097A1F0E885F98582859385E889F98993
:1038100040E050E060E070E020E000E010E07F0178
:103820000E94D52BE885F985138612868E819F81AB
:1038300061960FB6F894DEBF0FBECDBFCF91DF917A
:103840001F910F91FF90EF9008950F931F93DF93B7
:10385000CF93CDB7DEB762970FB6F894DEBF0FBE39
:10386000CDBF9A8789877C876B875E874D87388B2A
:103870002F871A8B098B89899A89009791F1E9859D
:10388000FA85808191819E838D83AE01495F5F4F70
:1038900089859A8529893A89EF85F889BA01A9012C
:1038A0009F010E94091E8F8198859A8389832F85A5
:1038B000388989899A89A901481B590BCA01988BB3
:1038C0008F8729813A818D859E858217930768F4B9
:1038D000E985FA858D819E81918380831A82198280
:1038E00004C08D859E859A8389834B855C858985F7
:1038F0009A8529813A81EF85F889BA01A9019F014A
:103900000E94091E9C838B838B819C8162960FB6DB
:10391000F894DEBF0FBECDBFCF91DF911F910F9105
:103920000895DF93CF93CDB7DEB727970FB6F894FE
:10393000DEBF0FBECDBF9F838E838E819F819D830F
:103940008C83EC81FD81808191819A838983EC81D4
:10395000FD812281338189819A812817390719F4E1
:1039600081E08B8301C01B828B8127960FB6F89470
:10397000DEBF0FBECDBFCF91DF910895DF93CF9310
:10398000CDB7DEB727970FB6F894DEBF0FBECDBF19
:103990009F838E838E819F819A838983E981FA81B7
:1039A0008685882F90E081709070882329F082E0CE
:1039B00090E09C838B8302C01C821B828E819F813E
:1039C0000E9486189C018B819C818217930718F0B6
:1039D00081E08D8301C01D828D8127960FB6F894FA
:1039E000DEBF0FBECDBFCF91DF910895EF92FF9262
:1039F0000F931F93DF93CF93CDB7DEB728970FB602
:103A0000F894DEBF0FBECDBF9E838D8378876F8312
:103A10008D819E819C838B831982EB81FC818085C3
:103A200091850097B9F0EB81FC8180859185EF81CC
:103A3000F88540E050E060E070E020E000E010E059
:103A40007F010E94D52BEB81FC811186108681E0DD
:103A50008A8301C01A828A8128960FB6F894DEBF45
:103A60000FBECDBFCF91DF911F910F91FF90EF90CF
:103A70000895EF92FF920F931F93DF93CF93CDB7EB
:103A8000DEB728970FB6F894DEBF0FBECDBF9E837A
:103A90008D8378876F838D819E819C838B83198230
:103AA000EB81FC81828593850097B9F0EB81FC81E5
:103AB00082859385EF81F88540E050E060E070E01A
:103AC00020E000E010E07F010E94D52BEB81FC811B
:103AD0001386128681E08A8301C01A828A81289621
:103AE0000FB6F894DEBF0FBECDBFCF91DF911F910F
:103AF0000F91FF90EF900895DF93CF93CDB7DEB78E
:103B00002E970FB6F894DEBF0FBECDBF9E838D8378
:103B100078876F835A874987ED81FE8182819381FF
:103B20009C838B83ED81FE81248135818B819C81F7
:103B3000A901481B590BCA0129853A853E872D8763
:103B40009C878B874B855C858D859E858417950723
:103B500020F42D853E853C872B874B855C855A83D9
:103B60004983ED81FE81248535858B819C81820F7F
:103B7000931F2F81388549815A81B9010E94152EE2
:103B800029853A8589819A8182179307B0F4ED815E
:103B9000FE81648575852F81388589819A81A90187
:103BA000480F591F29853A8589819A81281B390B2D
:103BB000CB01BA01A9010E94152E2B813C81898578
:103BC0009A85820F931F9C838B83ED81FE812481D4
:103BD00035818B819C818217930750F0ED81FE81A6
:103BE000248135818B819C81821B930B9C838B83E9
:103BF000ED81FE818B819C819383828389859A8567
:103C00002E960FB6F894DEBF0FBECDBFCF91DF91D9
:103C10000895DF93CF93CDB7DEB766970FB6F894CC
:103C2000DEBF0FBECDBF98878F837A8769875C8799
:103C30004B873E872D872D853E853A8B298B4B857B
:103C40005C85588B4F878F85988929893A892817F1
:103C5000390720F449895A89588B4F878F8598896D
:103C60009E838D838D819E81009709F474C0EF81BE
:103C7000F885808191819A838983EF81F8852481F9
:103C8000358189819A81A901481B590BCA012D816F
:103C90003E813E8B2D8B9C8B8B8B4B895C898D89D8
:103CA0009E898417950720F42D893E893C8B2B8BA8
:103CB0004B895C895C834B83EF81F885248535854E
:103CC00089819A81A901480F591F89859A852B817D
:103CD0003C81BA01A9010E94152E2D813E818B8164
:103CE0009C8182179307B0F429853A858B819C814A
:103CF000B901680F791FEF81F885448555852D81BD
:103D00003E818B819C81281B390BCB01BA01A90113
:103D10000E94152E29813A818D819E81820F931FE9
:103D20009A838983EF81F8852481358189819A81FD
:103D30008217930750F0EF81F885248135818981BE
:103D40009A81821B930B9A838983EF81F8858981FD
:103D50009A81918380838D819E8166960FB6F894B7
:103D6000DEBF0FBECDBFCF91DF910895DF93CF931C
:103D700000D000D0CDB7DEB79C838B83EB81FC8174
:103D800024813581EB81FC8182819381820F931F95
:103D90009A838983EB81FC812081318189819A8199
:103DA000821B930B9A838983EB81FC81248135816B
:103DB00089819A818217930750F0EB81FC812481DD
:103DC000358189819A81821B930B9A8389838981AA
:103DD0009A810F900F900F900F90CF91DF910895DF
:103DE0000F93DF93CF93CDB7DEB729970FB6F89433
:103DF000DEBF0FBECDBF9A8389837C836B835E83D6
:103E00004D8338872F83098789819A8160E070E02C
:103E10004FE050E00E941E2EE981FA818B819C8147
:103E200095878487E981FA818D819E81958384833A
:103E3000E981FA818F81988597838683E981FA8168
:103E40008985868729960FB6F894DEBF0FBECDBF51
:103E5000CF91DF910F9108958F929F92AF92BF9271
:103E6000CF92DF92EF92FF920F931F93DF93CF9346
:103E7000CDB7DEB760970FB6F894DEBF0FBECDBFEB
:103E80009F838E83798768875B874A873D872C87E6
:103E90000E87F88AEF868A859B850E94A0099A83FF
:103EA000898389819A810097B1F084E390E00E9430
:103EB000A0099D838C838C819D81009739F0EC81D2
:103EC000FD8189819A81908F878B07C089819A8132
:103ED0000E94F60902C01D821C828C819D81009780
:103EE000E9F08A859B859C0140E050E08E819F81AE
:103EF00068857985EC85FD85AF85B889AC80BD8006
:103F00008F01EE846D01882499240E94A41F8C8166
:103F10009D810E94672081E08B8302C08FEF8B839D
:103F20008B8160960FB6F894DEBF0FBECDBFCF91E8
:103F3000DF911F910F91FF90EF90DF90CF90BF9096
:103F4000AF909F908F9008958F929F92AF92BF9263
:103F5000CF92DF92EF920F931F93DF93CF93CDB762
:103F6000DEB764970FB6F894DEBF0FBECDBF9D835A
:103F70008C837F836E83288739874A875B871D8779
:103F80000C87EE86D88ACF86BA8AA98A9C8A8B8AC1
:103F9000E989FA892789308D888599850197820F6B
:103FA000931F9B838A838E819F81009751F1198291
:103FB00021C08981482F50E08981282F30E08E81EF
:103FC0009F81FC01E20FF31F208189899A89840F68
:103FD000951FFC01799620838981282F30E08E81FE
:103FE0009F81FC01E20FF31F8081882331F08981DA
:103FF0008F5F898389818431E0F2E989FA8914A687
:1040000003C0E989FA89118E8E85873010F086E029
:104010008E87E989FA898E85868BE989FA898E856A
:1040200085A7E989FA8916A689899A8902960E9444
:10403000CF0B89899A890C960E94CF0BE989FA895E
:1040400089899A89918780878E85282F30E087E03B
:1040500090E0821B930BE989FA8995878487E98927
:10406000FA8989899A89938B828BE989FA8917A6BB
:1040700010AA11AA12AAE989FA8913AA8A819B8136
:104080002C813D814C855D85B9010E94F80CE98940
:10409000FA89918380838F859889009731F0EF8525
:1040A000F88989899A899183808364960FB6F894F8
:1040B000DEBF0FBECDBFCF91DF911F910F91EF906B
:1040C000DF90CF90BF90AF909F908F900895DF9337
:1040D000CF9300D0CDB7DEB79A8389830FB6F8941B
:1040E0000F928091D1068F5F8093D1068091CE068A
:1040F0009091CF06009769F489819A819093CF06B9
:104100008093CE068091D1068130B9F40E943E277B
:1041100014C08091D506882381F4E091CE06F091F9
:10412000CF069689E981FA818689891730F08981DD
:104130009A819093CF068093CE068091D9068F5FA7
:104140008093D906E981FA8196898091D4068917EE
:1041500028F4E981FA8186898093D406E981FA817D
:104160008689282F30E0C901880F991F880F991F71
:10417000880F991F820F931FAC014152594F8981BB
:104180009A819C012E5F3F4FCA01B9010E94DF0B4B
:104190000F900FBE8091D506882361F0E091CE0686
:1041A000F091CF069689E981FA818689981710F4F3
:1041B0000E94B70E0F900F90CF91DF910895DF937B
:1041C000CF9300D000D000D0CDB7DEB79C838B83D7
:1041D0000FB6F8940F928B819C81009739F48091EF
:1041E000CE069091CF069E838D8304C08B819C81E7
:1041F0009E838D838D819E819A83898389819A8113
:1042000002960E948F0CE981FA8184899589009732
:1042100029F089819A810C960E948F0C8091D90691
:104220008F5F8093D9062091CE063091CF06898189
:104230009A818217930781F489819A819C012E5F6C
:104240003F4F8DE397E0B9010E94DF0B8091D006CC
:104250008F5F8093D0060BC08091D10681508093F0
:10426000D10689819A810E94AE270E94C4270F90AF
:104270000FBE8091D506882359F02091CE0630914B
:10428000CF0689819A818217930711F40E94B70E95
:1042900026960FB6F894DEBF0FBECDBFCF91DF914B
:1042A0000895DF93CF9300D00F92CDB7DEB79B83F5
:1042B0008A8319828A819B81009751F00E941E2374
:1042C0008A819B8160E00E948D2D0E942A23898330
:1042D0008981882311F40E94B70E0F900F900F90E0
:1042E000CF91DF910895DF93CF9300D000D000D01D
:1042F000CDB7DEB79C838B830FB6F8940F928B817A
:104300009C81009739F48091CE069091CF069E83D0
:104310008D8304C08B819C819E838D838D819E8142
:104320009A83898389819A8102960E948F0CE98100
:10433000FA8184899589009729F089819A810C9660
:104340000E948F0C89819A819C012E5F3F4F86E4E9
:1043500097E0B9010E94DF0BE981FA8183A98130DE
:1043600019F4E981FA8113AA0F900FBE8091D50646
:10437000882339F00FB6F8940F920E94C4270F904B
:104380000FBE2091CE063091CF0689819A81821787
:104390009307A1F48091D506882319F00E94B70EE7
:1043A0000DC0909146078091D106981729F410927C
:1043B000CF061092CE0602C00E94FF2426960FB6AA
:1043C000F894DEBF0FBECDBFCF91DF910895DF938C
:1043D000CF9300D000D00F92CDB7DEB79D838C83F2
:1043E0001B828C819D819A838983E981FA818285F0
:1043F000938527E08634920781F4E981FA818489E4
:10440000958927E08433920741F0E981FA81848914
:104410009589009711F481E08B838B810F900F9029
:104420000F900F900F90CF91DF910895DF93CF936E
:1044300000D000D0CDB7DEB79C838B838B819C816D
:104440009A8389832091CE063091CF0689819A8103
:104450008217930709F447C089819A81009709F46C
:1044600042C00FB6F8940F9289819A810E94E72189
:104470008823B9F189819A8102960E948F0CE98183
:10448000FA8196898091D406891728F4E981FA8106
:1044900086898093D406E981FA818689282F30E0C5
:1044A000C901880F991F880F991F880F991F820FC4
:1044B000931FAC014152594F89819A819C012E5F13
:1044C0003F4FCA01B9010E94DF0BE981FA81968949
:1044D000E091CE06F091CF068689981710F00E94E1
:1044E000B70E0F900FBE0F900F900F900F90CF91BF
:1044F000DF910895DF93CF9300D000D000D0CDB7E7
:10450000DEB79E838D831C828D819E819B838A83EF
:1045100019828A819B810E94E721882309F446C081
:104520008091DE068823C1F5EA81FB819689E091BE
:10453000CE06F091CF068689981710F081E08C8323
:104540008A819B8102960E948F0CEA81FB81968969
:104550008091D406891728F4EA81FB8186898093AB
:10456000D406EA81FB818689282F30E0C901880FB3
:10457000991F880F991F880F991F820F931FAC01F5
:104580004152594F8A819B819C012E5F3F4FCA0146
:10459000B9010E94DF0B0AC08A819B819C01245FC4
:1045A0003F4F84E397E0B9010E94DF0B8C81269690
:1045B0000FB6F894DEBF0FBECDBFCF91DF91089547
:1045C000EF92FF920F93DF93CF930F92CDB7DEB7A9
:1045D00084E397E221EE30E0ECEDF6E0B90146E944
:1045E00050E020E030E000E07F010E942C1F898332
:1045F0008981813081F4F8948FEF9FEF9093DB06EF
:104600008093DA0681E08093D5061092D30610924B
:10461000D2060E947B0E0F90CF91DF910F91FF90F9
:10462000EF900895DF93CF93CDB7DEB7F894109253
:10463000D5060E94B00ECF91DF910895DF93CF93FE
:10464000CDB7DEB78091DE068F5F8093DE06CF9117
:10465000DF910895DF93CF9300D000D0CDB7DEB7C0
:104660001C821B821A820FB6F8940F928091DE068C
:1046700081508093DE068091DE06882309F073C0A6
:104680008091D106882309F46EC045C0E0913907B6
:10469000F0913A07868197819C838B838B819C81E3
:1046A0000C960E948F0C8B819C8102960E948F0C2D
:1046B000EB81FC8196898091D406891728F4EB81DF
:1046C000FC8186898093D406EB81FC818689282F22
:1046D00030E0C901880F991F880F991F880F991F13
:1046E000820F931FAC014152594F8B819C819C01D9
:1046F0002E5F3F4FCA01B9010E94DF0BEB81FC81A5
:104700009689E091CE06F091CF068689981718F029
:1047100081E08093D70680913407882309F0B6CFD3
:104720008B819C81009711F00E94C4278091D6064E
:1047300089838981882379F00E941A24882319F0BB
:1047400081E08093D706898181508983898188237C
:1047500099F71092D6068091D706882321F081E040
:104760008A830E94B70E0F900FBE8A810F900F9020
:104770000F900F90CF91DF910895DF93CF9300D0EA
:10478000CDB7DEB70FB6F8940F928091D206909114
:10479000D3069A8389830F900FBE89819A810F90E7
:1047A0000F90CF91DF910895DF93CF9300D00F92B8
:1047B000CDB7DEB719828091D2069091D3069B8344
:1047C0008A838A819B810F900F900F90CF91DF9108
:1047D0000895DF93CF93CDB7DEB78091D106CF9107
:1047E000DF910895DF93CF9300D000D000D0CDB7F4
:1047F000DEB79C838B838B819C81009739F48091F9
:10480000CE069091CF069E838D8304C08B819C81C0
:104810009E838D838D819E819A83898389819A81EC
:10482000499626960FB6F894DEBF0FBECDBFCF9146
:10483000DF910895DF93CF93CDB7DEB729970FB6F9
:10484000F894DEBF0FBECDBF1D828091DE068823A7
:1048500009F0C0C08091D2069091D30601969C8346
:104860008B838B819C819093D3068093D2068B811E
:104870009C810097D9F480913007909131079A83F9
:104880008983809132079091330790933107809309
:10489000300789819A819093330780933207809102
:1048A000D8068F5F8093D8060E94C4272091DA062D
:1048B0003091DB068B819C818217930708F471C0CD
:1048C000E0913007F09131078081882339F48FEF30
:1048D0009FEF9093DB068093DA0663C0E091300788
:1048E000F09131070580F681E02D868197819987C7
:1048F0008887E885F985828193819F838E832B81C8
:104900003C818E819F812817390738F48E819F81E1
:104910009093DB068093DA0644C0888599850296D9
:104920000E948F0CE885F98584899589009729F084
:10493000888599850C960E948F0CE885F985968963
:104940008091D406891728F4E885F98586898093B3
:10495000D406E885F9858689282F30E0C901880FBB
:10496000991F880F991F880F991F820F931FAC0101
:104970004152594F888599859C012E5F3F4FCA014E
:10498000B9010E94DF0BE885F9859689E091CE0692
:10499000F091CF068689981708F492CF81E08D8335
:1049A0008FCFE091CE06F091CF068689282F30E098
:1049B000C901880F991F880F991F880F991F820FAF
:1049C000931FFC01E152F94F8081823040F081E079
:1049D0008D8305C08091D6068F5F8093D606809127
:1049E000D706882311F081E08D838D8129960FB63B
:1049F000F894DEBF0FBECDBFCF91DF910895DF9356
:104A0000CF9300D00F92CDB7DEB78091DE0688231A
:104A100021F081E08093D70659C01092D70680918B
:104A2000D4068B8303C08B8181508B838B81282F8D
:104A300030E0C901880F991F880F991F880F991FAF
:104A4000820F931FFC01E152F94F8081882359F3B3
:104A50008B81282F30E0C901880F991F880F991F7B
:104A6000880F991F820F931F8152994F9A838983D0
:104A7000E981FA810180F281E02D82819381E981CF
:104A8000FA8192838183E981FA812181328189814E
:104A90009A8103962817390759F4E981FA81018030
:104AA000F281E02D82819381E981FA819283818371
:104AB000E981FA810180F281E02D868197819093CE
:104AC000CF068093CE068B818093D4060F900F90F3
:104AD0000F90CF91DF910895DF93CF9300D000D056
:104AE000CDB7DEB79A8389837C836B838091CE06B2
:104AF0009091CF069C01245F3F4F89819A81B90133
:104B00000E94230C8B819C8161E00E948D2D0F906F
:104B10000F900F900F90CF91DF910895DF93CF9377
:104B200000D000D000D0CDB7DEB79A8389837C83D4
:104B30006B835E834D83E091CE06F091CF068B812F
:104B40009C819068958784878091CE069091CF064E
:104B50009C01245F3F4F89819A81B9010E94DF0B3C
:104B60008D819E8161E00E948D2D26960FB6F8946E
:104B7000DEBF0FBECDBFCF91DF910895DF93CF93FE
:104B800000D000D00F92CDB7DEB79D838C83EC812F
:104B9000FD810580F681E02D868197819B838A8344
:104BA0008A819B810C960E948F0C8091DE0688235F
:104BB00061F58A819B8102960E948F0CEA81FB81BC
:104BC00096898091D406891728F4EA81FB81868929
:104BD0008093D406EA81FB818689282F30E0C901C1
:104BE000880F991F880F991F880F991F820F931F95
:104BF000AC014152594F8A819B819C012E5F3F4FEE
:104C0000CA01B9010E94DF0B0AC08A819B819C0105
:104C1000245F3F4F84E397E0B9010E94DF0BEA81F4
:104C2000FB819689E091CE06F091CF06868989179F
:104C300030F481E0898381E08093D70601C0198236
:104C400089810F900F900F900F900F90CF91DF916F
:104C50000895DF93CF9300D000D000D0CDB7DEB75A
:104C60009C838B837E836D838D819E819068EB8195
:104C7000FC8191838083EB81FC81868197819A837B
:104C800089838B819C810E948F0C89819A810296F5
:104C90000E948F0CE981FA8196898091D406891748
:104CA00028F4E981FA8186898093D406E981FA8122
:104CB0008689282F30E0C901880F991F880F991F16
:104CC000880F991F820F931FAC014152594F898160
:104CD0009A819C012E5F3F4FCA01B9010E94DF0BF0
:104CE000E981FA819689E091CE06F091CF06868916
:104CF000891718F481E08093D70626960FB6F894AA
:104D0000DEBF0FBECDBFCF91DF910895DF93CF936C
:104D100000D0CDB7DEB79A8389830FB6F8940F928F
:104D20008091D806E981FA8180838091D2069091A2
:104D3000D306E981FA81928381830F900FBE0F9091
:104D40000F90CF91DF910895DF93CF9300D0CDB72F
:104D5000DEB79A8389838091D806E981FA818083BE
:104D60008091D2069091D306E981FA819283818362
:104D70000F900F90CF91DF910895DF93CF93CDB730
:104D8000DEB729970FB6F894DEBF0FBECDBF9F8365
:104D90008E83798768870FB6F8940F928091D20638
:104DA0009091D3069C838B83EE81FF812181328198
:104DB0008B819C81821B930B9A838983E885F9857B
:104DC000808191812FEF8F3F920711F41D8236C0B1
:104DD000EE81FF8190818091D806981761F0EE8175
:104DE000FF81218132818B819C818217930718F08A
:104DF00081E08D8323C0E885F98520813181898117
:104E00009A8182179307A0F4E885F9852081318182
:104E100089819A81A901481B590BCA01E885F98546
:104E2000918380838E819F810E94A4261D8206C06B
:104E3000E885F9851182108281E08D830F900FBE85
:104E40008D8129960FB6F894DEBF0FBECDBFCF91EE
:104E5000DF910895DF93CF93CDB7DEB781E08093E4
:104E6000D706CF91DF910895DF93CF9300D0CDB7D0
:104E7000DEB79A8389830E947F27FDCFDF93CF938C
:104E80000F92CDB7DEB7198213C08981282F30E089
:104E9000C901880F991F880F991F880F991F820FCA
:104EA000931F8152994F0E94A50B89818F5F89833F
:104EB0008981873050F38EE197E00E94A50B87E24D
:104EC00097E00E94A50B84E397E00E94A50B8DE379
:104ED00097E00E94A50B86E497E00E94A50B8EE167
:104EE00097E0909331078093300787E297E09093A3
:104EF0003307809332070F90CF91DF910895DF93AE
:104F0000CF9300D0CDB7DEB720C00FB6F8940F9284
:104F1000E0914207F0914307868197819A838983C4
:104F200089819A8102960E948F0C8091D1068150CE
:104F30008093D1068091D00681508093D0060F9047
:104F40000FBE89819A810E94AE278091D006882366
:104F5000E1F60F900F90CF91DF910895DF93CF93FB
:104F600000D0CDB7DEB79A838983E981FA8187893A
:104F7000908D0E94F60989819A810E94F6090F900E
:104F80000F90CF91DF910895DF93CF9300D0CDB7ED
:104F9000DEB7E0913007F09131078081882339F442
:104FA0008FEF9FEF9093DB068093DA0613C0E091BA
:104FB0003007F09131070580F681E02D86819781D9
:104FC0009A838983E981FA81828193819093DB06B8
:104FD0008093DA060F900F90CF91DF910895DF93C1
:104FE000CF9300D0CDB7DEB78091CE069091CF069B
:104FF0009A83898389819A810F900F90CF91DF9155
:105000000895DF93CF9300D000D00F92CDB7DEB7D5
:105010009D838C838C819D819B838A8319828C8163
:105020009D81009709F482C0EA81FB819689E09115
:10503000CE06F091CF068689981708F06BC0EA81FA
:10504000FB818485958599237CF0E091CE06F091D3
:10505000CF068689282F30E087E090E0821B930BF3
:10506000EA81FB8195878487EA81FB8142855385AC
:10507000EA81FB818689282F30E0C901880F991FBA
:10508000880F991F880F991F820F931F8152994F84
:1050900048175907A1F58A819B8102960E948F0CBF
:1050A000E091CE06F091CF068689EA81FB81868B5E
:1050B000EA81FB8196898091D406891728F4EA81D8
:1050C000FB8186898093D406EA81FB818689282F1B
:1050D00030E0C901880F991F880F991F880F991F09
:1050E000820F931FAC014152594F8A819B819C01D1
:1050F0002E5F3F4FCA01B9010E94DF0B08C0E0914B
:10510000CE06F091CF068689EA81FB81868B81E00D
:1051100089830CC0EA81FB8195A5E091CE06F091D0
:10512000CF068689981710F481E0898389810F90D2
:105130000F900F900F900F90CF91DF910895DF9314
:10514000CF9300D000D00F92CDB7DEB79D838C8374
:105150008C819D819B838A8319828C819D8100979C
:1051600009F456C0EA81FB8186A58150EA81FB8162
:1051700086A7EA81FB819689EA81FB8185A598173C
:1051800009F446C0EA81FB8186A5882309F040C066
:105190008A819B8102960E948F0CEA81FB8185A502
:1051A000EA81FB81868BEA81FB818689282F30E0AA
:1051B00087E090E0821B930BEA81FB8195878487CF
:1051C000EA81FB8196898091D406891728F4EA81C7
:1051D000FB8186898093D406EA81FB818689282F0A
:1051E00030E0C901880F991F880F991F880F991FF8
:1051F000820F931FAC014152594F8A819B819C01C0
:105200002E5F3F4FCA01B9010E94DF0B81E0898305
:1052100089810F900F900F900F900F90CF91DF9199
:105220000895DF93CF93CDB7DEB728970FB6F894E4
:10523000DEBF0FBECDBF9F838E8368878E819F8127
:105240009D838C8381E089838E819F81009709F4FF
:1052500074C0EC81FD8195A58885981718F4888520
:105260008A8304C0EC81FD8185A58A83EC81FD8160
:1052700096898A81981709F460C0EC81FD8196A512
:105280008981981709F059C0EC81FD8186898B834B
:10529000EC81FD818A81868BEC81FD8184859585F9
:1052A00099235CF08A81282F30E087E090E0821B10
:1052B000930BEC81FD8195878487EC81FD8142858C
:1052C00053858B81282F30E0C901880F991F880FE3
:1052D000991F880F991F820F931F8152994F48176A
:1052E000590759F58C819D8102960E948F0CEC81A3
:1052F000FD8196898091D406891728F4EC81FD817F
:1053000086898093D406EC81FD818689282F30E040
:10531000C901880F991F880F991F880F991F820F45
:10532000931FAC014152594F8C819D819C012E5F8E
:105330003F4FCA01B9010E94DF0B28960FB6F894BF
:10534000DEBF0FBECDBFCF91DF910895DF93CF9326
:1053500000D0CDB7DEB7E091CE06F091CF068485C0
:1053600095859A838983A091CE06B091CF06E0916E
:10537000CE06F091CF068689282F30E087E090E0B6
:10538000821B930B1D969C938E931C9789819A8107
:105390000F900F90CF91DF910895DF93CF93CDB70A
:1053A000DEB78091CE069091CF06009739F0E0915C
:1053B000CE06F091CF0686A58F5F86A78091CE0698
:1053C0009091CF06CF91DF910895DF93CF93CDB722
:1053D000DEB727970FB6F894DEBF0FBECDBF8D8323
:1053E0007F836E830FB6F8940F92E091CE06F09112
:1053F000CF0687A590A9A1A9B2A90097A105B105DB
:1054000089F4E091CE06F091CF0681E083AB8E81E6
:105410009F81009739F08E819F8161E00E948D2DE0
:105420000E94B70E0F900FBE0FB6F8940F92E09146
:10543000CE06F091CF0687A590A9A1A9B2A989832C
:105440009A83AB83BC8389819A81AB81BC810097AD
:10545000A105B105D9F08D81882349F0E091CE06F0
:10546000F091CF0617A610AA11AA12AA0FC0E091B8
:10547000CE06F091CF0689819A81AB81BC810197DC
:10548000A109B10987A790ABA1ABB2ABE091CE0661
:10549000F091CF0613AA0F900FBE89819A81AB813C
:1054A000BC81BC01CD0127960FB6F894DEBF0FBEBC
:1054B000CDBFCF91DF910895EF92FF920F931F938D
:1054C000DF93CF93CDB7DEB72D970FB6F894DEBF3D
:1054D0000FBECDBF6A837B838C839D832E833F83E6
:1054E000488759871B870A87FD86EC860FB6F89494
:1054F0000F92E091CE06F091CF0683A9823049F158
:10550000E091CE06F091CF0627A530A941A952A976
:105510008A819B81AC81BD8180959095A095B09545
:1055200082239323A423B52387A790ABA1ABB2AB6F
:10553000E091CE06F091CF0681E083AB8C859D850E
:10554000009739F08C859D8561E00E948D2D0E9429
:10555000B70E0F900FBE0FB6F8940F928A859B85F9
:10556000009771F0E091CE06F091CF0687A590A943
:10557000A1A9B2A9EA85FB8580839183A283B38325
:10558000E091CE06F091CF0683A9823011F0198206
:105590001AC0E091CE06F091CF0627A530A941A907
:1055A00052A98E819F81A885B98580959095A095F7
:1055B000B09582239323A423B52387A790ABA1ABF7
:1055C000B2AB81E08983E091CE06F091CF0613AAB9
:1055D0000F900FBE89812D960FB6F894DEBF0FBED7
:1055E000CDBFCF91DF911F910F91FF90EF90089564
:1055F0000F931F93DF93CF93CDB7DEB72F970FB6DF
:10560000F894DEBF0FBECDBF9E838D834F83588736
:1056100069877A872B871D870C8781E08A838D8134
:105620009E819C838B830FB6F8940F928C859D8509
:10563000009761F0EB81FC8187A590A9A1A9B2A98F
:10564000EC85FD8580839183A283B383EB81FC810C
:1056500083A98983EB81FC8182E083AB8B85282F32
:1056600030E03F872E878E859F858230910559F1E6
:105670002E853F852330310534F48E859F8581301A
:10568000910561F04AC02E853F852330310559F1DF
:105690008E859F858430910589F13FC0EB81FC8127
:1056A00027A530A941A952A98F819885A985BA85D6
:1056B000822B932BA42BB52BEB81FC8187A790AB7E
:1056C000A1ABB2AB2AC0EB81FC8187A590A9A1A9AF
:1056D000B2A90196A11DB11DEB81FC8187A790ABFA
:1056E000A1ABB2AB1AC0EB81FC818F819885A985F3
:1056F000BA8587A790ABA1ABB2AB0FC089818230CE
:1057000059F0EB81FC818F819885A985BA8587A79F
:1057100090ABA1ABB2AB01C01A8289818130B9F5DF
:105720008B819C8102960E948F0CEB81FC81968973
:105730008091D406891728F4EB81FC8186898093B7
:10574000D406EB81FC818689282F30E0C901880FBF
:10575000991F880F991F880F991F820F931FAC0103
:105760004152594F8B819C819C012E5F3F4FCA0152
:10577000B9010E94DF0BEB81FC819689E091CE0696
:10578000F091CF068689891710F40E94B70E0F900A
:105790000FBE8A812F960FB6F894DEBF0FBECDBF25
:1057A000CF91DF911F910F910895EF92FF920F9388
:1057B0001F93DF93CF93CDB7DEB762970FB6F89400
:1057C000DEBF0FBECDBF9F838E83488759876A8710
:1057D0007B872C871E870D87F88AEF8681E08A8376
:1057E0008E819F819D838C8319828D859E850097F4
:1057F00061F0EC81FD8187A590A9A1A9B2A9ED85F1
:10580000FE8580839183A283B383EC81FD8183A98C
:105810008B83EC81FD8182E083AB8C85282F30E087
:105820003A8B298B89899A898230910559F1298986
:105830003A892330310534F489899A898130910578
:1058400061F04AC029893A892330310559F18989A3
:105850009A898430910589F13FC0EC81FD8127A5AB
:1058600030A941A952A988859985AA85BB85822B33
:10587000932BA42BB52BEC81FD8187A790ABA1AB1B
:10588000B2AB2AC0EC81FD8187A590A9A1A9B2A9DC
:105890000196A11DB11DEC81FD8187A790ABA1AB45
:1058A000B2AB1AC0EC81FD8188859985AA85BB853C
:1058B00087A790ABA1ABB2AB0FC08B81823059F000
:1058C000EC81FD8188859985AA85BB8587A790ABEA
:1058D000A1ABB2AB01C01A828B81813009F04FC0FD
:1058E0008091DE06882361F58C819D8102960E945D
:1058F0008F0CEC81FD8196898091D406891728F45C
:10590000EC81FD8186898093D406EC81FD818689B6
:10591000282F30E0C901880F991F880F991F880F21
:10592000991F820F931FAC014152594F8C819D8169
:105930009C012E5F3F4FCA01B9010E94DF0B0AC0D4
:105940008C819D819C01245F3F4F84E397E0B901E6
:105950000E94DF0BEC81FD819689E091CE06F091EB
:10596000CF068689891758F48F859889009721F08A
:10597000EF85F88981E0808381E08093D7068A8172
:1059800062960FB6F894DEBF0FBECDBFCF91DF9108
:105990001F910F91FF90EF900895DF93CF93CDB7B4
:1059A000DEB728970FB6F894DEBF0FBECDBF9E833B
:1059B0008D8378876F838D819E819C838B831982F1
:1059C000EB81FC8183A98A83EB81FC8182E083AB3C
:1059D000EB81FC8187A590A9A1A9B2A90196A11D7F
:1059E000B11DEB81FC8187A790ABA1ABB2AB8A81E3
:1059F000813009F04FC08091DE06882361F58B81EC
:105A00009C8102960E948F0CEB81FC81968980918B
:105A1000D406891728F4EB81FC8186898093D4060B
:105A2000EB81FC818689282F30E0C901880F991FFE
:105A3000880F991F880F991F820F931FAC01415245
:105A4000594F8B819C819C012E5F3F4FCA01B90148
:105A50000E94DF0B0AC08B819C819C01245F3F4F19
:105A600084E397E0B9010E94DF0BEB81FC8196890A
:105A7000E091CE06F091CF068689891758F48F8180
:105A80009885009721F0EF81F88581E0808381E09F
:105A90008093D70628960FB6F894DEBF0FBECDBF11
:105AA000CF91DF910895DF93CF93CDB7DEB72797DE
:105AB0000FB6F894DEBF0FBECDBF9D838C838C8163
:105AC0009D81009739F48091CE069091CF069F83F7
:105AD0008E8304C08C819D819F838E838E819F8164
